:020000040000FA
:1000000002EF00F00F0E936E000E946E000E956ED0
:1000100093EC00F0540E8FEC00F0450E8FEC00F0E6
:10002000430E8FEC00F04C0E8FEC00F0410E8FEC85
:1000300000F03A0E8FEC00F0200E8FEC00F0A6ECF2
:1000400000F00000000000000000000000000000C0
:1000500000000000000000000000000000000000A0
:1000600000000000000000000000120081B636EF22
:1000700000F081B436EF00F081B236EF00F081B0CD
:1000800036EF00F012008198819A819C819E8188D0
:1000900081B6310C81B4320C81B2330C81B0410C89
:1000A0008198818A81B6340C81B4350C81B2360CCA
:1000B00081B0420C819A818C81B6370C81B4380CA6
:1000C00081B2390C81B0430C819C818E81B62A0C9F
:1000D00081B4300C81B2230C81B0460C819E000C9F
:1000E000E8BE838EE8AE839EE8BC838CE8AC839C3C
:1000F000E8BA838AE8AA839AE8B88388E8A883984C
:10010000828221EC00F08292120070EC00F0E83A5A
:1001100070EC00F01200829085EC00F012008280FA
:1001200085EC00F01200300E70EC00F0300E70EC38
:1001300000F0300E70EC00F0200E70EC00F00C0EB1
:100140008BEC00F0010E8BEC00F0120043EC00F0A1
:0E01500000628FEC00F036EC00F0A6EF00F03D
:020000040030CA
:04000000000C1F1FB2
:02000500038571
:060008000FC00FE00F40E5
:00000001FF
