:020000040000FA
:040000000EEF00F00F
:04000800C1EF00F054
:08001800EAEF01F00F01F00E08
:10002000936E0F01F19E0F01000E956E0F019690D9
:1000300096920F01C186C184C182C1800F01D59CF7
:10004000D59AD596D584D582D5800F01F80ED76E76
:100050000F015F0ED66E0001140E306E0A0E316E67
:10006000326A010E336E0001606B616B626B636B11
:10007000646B656B666B0001320E706F330E716FCF
:10008000310E726F330E736F300E746F370E756FE3
:10009000330E766F0F01D08E0F01F190F1840F01B6
:1000A000F28EF28CF290F286F2940F01D59E0F013F
:1000B000F28A300EFDEC02F0300EFDEC02F0300E54
:1000C000FDEC02F0200EFDEC02F0280E21EC03F016
:1000D0000E0E21EC03F0010E21EC03F0540E26EC81
:1000E00003F0450E26EC03F0430E26EC03F04C0E15
:1000F00026EC03F0450E26EC03F0200E26EC03F070
:10010000500E26EC03F02F0E26EC03F0200E26EC0A
:1001100003F0490E26EC03F04E0E26EC03F0490ED8
:1001200026EC03F0430E26EC03F0490E26EC03F018
:100130004F0E26EC03F0200E26EC03F00F01818019
:10014000818281848186819000000000000000008F
:10015000000081808192000000000000000000008B
:100160008182819400000000000000000000818472
:1001700081960000000000000000000081869EEFD4
:1001800000F00001E8CF20F0D8CF21F0E0CF22F03E
:100190000F01F2940F01F80ED76E0F015F0ED66EAD
:1001A00000010A0E426E000130500001406E2BEC3F
:1001B00003F043500001506E00010A0E406E43C030
:1001C00041F034EC03F045500001305C0001516E09
:1001D000300E50265126C60E21EC03F0000150507F
:1001E00026EC03F00001515026EC03F00001312E03
:1001F000FFEF00F00A0E316E304E89EF01F0000182
:10020000070E3364E2EF01F00001705100016063FA
:1002100089EF01F0000171510001616389EF01F084
:10022000000172510001626389EF01F00001735116
:100230000001636389EF01F0000174510001646300
:1002400089EF01F0000175510001656389EF01F04C
:10025000000176510001666389EF01F00F01D59E20
:100260000001140E306E326A0A0E316E010E336ECA
:100270000001606B616B626B636B646B656B666BDB
:10028000010E21EC03F0530E26EC03F0450E26EC94
:1002900003F04E0E26EC03F0480E26EC03F0410E60
:1002A00026EC03F0200E26EC03F0430E26EC03F0C0
:1002B0004F0E26EC03F0520E26EC03F0520E26EC05
:1002C00003F0450E26EC03F0540E26EC03F0410E2D
:1002D00026EC03F0210E26EC03F0200E26EC03F0B2
:1002E000200E26EC03F0EAEC02F0EAEC02F0EAEC75
:1002F00002F0EAEC02F0EAEC02F0EAEC02F0EAECDE
:1003000002F0EAEC02F0EAEC02F0EAEC02F0E2EFD2
:1003100001F00F01D59E0001140E306E326A0A0EF4
:10032000316E010E336E0001606B616B626B636B4B
:10033000646B656B666B010E21EC03F0530E26ECCB
:1003400003F0450E26EC03F04E0E26EC03F0480EAB
:1003500026EC03F0410E26EC03F0200E26EC03F011
:10036000490E26EC03F04E0E26EC03F0430E26EC6D
:1003700003F04F0E26EC03F0520E26EC03F0520E63
:1003800026EC03F0450E26EC03F0540E26EC03F0A9
:10039000410E26EC03F0210E26EC03F0EAEC02F00D
:1003A000EAEC02F0EAEC02F0EAEC02F0EAEC02F02D
:1003B000EAEC02F0EAEC02F0EAEC02F0EAEC02F01D
:1003C000EAEC02F0000122C0E0FF21C0D8FF20C00B
:1003D000E8FF11000001E8CF20F0D8CF21F0E0CFF6
:1003E00022F00F01F2900F01D5AEF9EF01F035EFD9
:1003F00002F00F0181A8F9EF01F081AAF9EF01F0F5
:1004000081ACF9EF01F081AEF9EF01F00F01D58E6B
:10041000010E21EC03F0800E21EC03F0530E26ECCC
:1004200003F0450E26EC03F04E0E26EC03F0480ECA
:1004300026EC03F0410E26EC03F03A0E26EC03F016
:10044000C00E21EC03F0540E26EC03F0450E26EC12
:1004500003F04D0E26EC03F0500E26EC03F04F0E89
:1004600026EC03F03A0E26EC03F0860E21EC03F0A6
:10047000200E0F0181B848EF02F081A0310E81A259
:10048000320E81A4330E81A6410E81A839EF02F00D
:100490000F0181BA57EF02F081A0340E81A2350E10
:1004A00081A4360E81A6420E81AA48EF02F00F0108
:1004B00081BC66EF02F081A0370E81A2380E81A4C4
:1004C000390E81A6430E81AC57EF02F00F0181BEB9
:1004D00075EF02F081A0460E81A2300E81A4450E78
:1004E00081A6440E81AE66EF02F00001E8CF34F041
:1004F000200E34627EEF02F0E2EF02F03450326EF2
:1005000026EC03F00001080E336289EF02F0E2EFFF
:1005100002F00001010E336296EF02F0325000014A
:10052000606F00013328336EE2EF02F00001020E2B
:100530003362A3EF02F032500001616F00013328F3
:10054000336EE2EF02F00001030E3362B0EF02F00F
:1005500032500001626F00013328336EE2EF02F087
:100560000001040E3362BDEF02F032500001636FF0
:1005700000013328336EE2EF02F00001050E336212
:10058000CAEF02F032500001646F00013328336E6D
:10059000E2EF02F00001060E3362D7EF02F03250B4
:1005A0000001656F00013328336EE2EF02F00001B5
:1005B000070E3362E2EF02F032500001666F000175
:1005C0003328336E000122C0E0FF21C0D8FF20C0D5
:1005D000E8FF10000001640E826F0001FA0E806FC8
:1005E000080E816F0001802FF2EF02F0812FF2EFF1
:1005F00002F0822FEDEF02F012000F01E8BE838EB1
:10060000E8AE839EE8BC838CE8AC839CE8BA838A1E
:10061000E8AA839AE8B88388E8A883980F018482BF
:1006200000000000000000000000000000000000CA
:10063000000084921200FDEC02F0E83AFDEC02F0BA
:1006400012000F0184901BEC03F012000F01848054
:100650001BEC03F012000001436A4250405ED8A038
:100660001200432A2DEF03F00001456A446A40500E
:10067000456E4106D8B4120040504526D8B0442AF1
:0406800039EF03F05B
:020000040030CA
:04000000000C1F1EB3
:02000500018177
:060008000FC00FE00F40E5
:00000001FF
